:1000000071C0000073C300008CC000008AC00000F3
:1000100088C0000086C0000084C0000082C00000CC
:1000200080C000007EC000007CC000007AC00000DC
:1000300078C0000076C0000074C0000072C00000EC
:1000400070C000006EC000006CC000006AC00000FC
:1000500068C0000066C0000064C0000062C000000C
:1000600060C000005EC000005CC000005AC000001C
:1000700058C0000056C0000054C0000052C000002C
:1000800050C000004EC000004CC000004AC000003C
:1000900024C5000046C0000044C0000042C000006B
:1000A00040C000003EC000003CC000003AC000005C
:1000B00038C0000036C0000034C0000032C000006C
:1000C00030C000002EC000002CC000002AC000007C
:1000D00028C0000026C0000024C0000022C000008C
:1000E00020C0000011241FBECFEFD1E2DEBFCDBF84
:1000F00000E00CBF12E0A0E0B2E0E4E4FBE000E0CE
:100100000BBF02C007900D92A831B107D9F722E0CA
:10011000A8E1B2E001C01D92AD35B207E1F702D00F
:100120000FC56ECFF894E1E6F0E080E8808310829E
:100130007894F8948FEF80930A0180930B017FD31A
:1001400097D163E081E054D241E060E072E080E06A
:10015000A7D1789460E070E884E690E04CD42FE971
:1001600086E891E0215080409040E1F700C0000017
:1001700060E070E080E090E03ED40F2EFBE0EF2ED8
:10018000FF24F394F02DD1E008E112E06894CC2430
:10019000C5F86894DD24D4F880913802882309F4E6
:1001A00060C0E7E8F3E13197F1F700C00000C80153
:1001B0006FD2833011F010923802F80180818823C9
:1001C00029F0F701808180588083E6CFF80180858F
:1001D00090E8980F953000F38E38F1F223D4F801AF
:1001E0008185882361F0C0E0EC2FF0E0E85EFD4FF0
:1001F000828518D4CF5FF8018185C817A8F38BE1F9
:1002000092E0DDD16BE172E08D2F6CD36BE172E097
:1002100082E068D36BE172E083E064D3F801D083BD
:1002200060E0C80110D281110EC0F70180818D25D8
:10023000808383EC99E00197F1F700C00000808192
:100240008D258083A9CFF70180818C25808383EC65
:1002500099E00197F1F700C0000080818D2580832F
:100260009BCFF70180818D27808383EC99E00197F4
:10027000F1F700C0000090CF81E080933802EBE0FE
:10028000F1E080818058808383ED90E30197F1F75E
:1002900000C0000080818058808308952D988FEFE2
:1002A000C8D22D9A08950F931F93CF93DF938B019C
:1002B000D42F2D988F718062BCD2C82F6D2FC801AA
:1002C000A5D22D9A8C2FDF91CF911F910F91089578
:1002D0000F931F93CF93DF93EB01142F442369F007
:1002E000FB012FEF240F30E02F5F3F4F260F371F0A
:1002F0009FEF9193E217F307E1F72D988F7199D251
:10030000082F412FBE0180E090E069D22D9A802F06
:10031000DF91CF911F910F910895EF92FF920F936C
:100320001F93CF937B018A01C22F2D9882D2CC23B9
:1003300059F00115110521F46C2FC70167D204C0D3
:100340004C2FB801C7014BD22D9ACF911F910F911D
:10035000FF90EF900895CF93DF931F92CDB7DEB754
:1003600041E0BE016F5F7F4F80E0B2DF898180FD99
:1003700010C08160898341E0BE016F5F7F4F80E0E4
:1003800092DF85E18A95F1F700C085E18A95F1F762
:1003900000C00F90DF91CF910895CF93DF931F920C
:1003A000CDB7DEB741E0BE016F5F7F4F80E090DFE9
:1003B000898180FF10C08E7F898341E0BE016F5F1D
:1003C0007F4F80E070DF85E18A95F1F700C085E11D
:1003D0008A95F1F700C00F90DF91CF910895809139
:1003E0001202882329F045E068E072E08AE05BCFE2
:1003F0000895CF93DF931F92CDB7DEB7E8D183E0A6
:10040000898341E0BE016F5F7F4F4DDF85E18983C6
:1004100041E0BE016F5F7F4F84E045DF80E7898365
:1004200041E0BE016F5F7F4F85E03DDF89E089835A
:1004300041E0BE016F5F7F4F86E035DF8FE089834B
:1004400041E0BE016F5F7F4F80E02DDF20E040E0A4
:1004500050E060E070E081EE60DF20E040E050E0DE
:1004600060E070E082EE59DF0F90DF91CF91089548
:1004700010925C022C98249A259A6898EAE6F0E09B
:1004800080818260808380818E7F8083E89AB1DF63
:1004900083EF91E00197F1F700C000002C9A0895D6
:1004A000CF92DF92EF92FF920F931F93CF93DF9340
:1004B0001F92CDB7DEB7863008F077C0811116C025
:1004C000DB019C91E8E0F2E0908311969C911197FA
:1004D000918312969C911297928313969C911397F5
:1004E000938314969C91948395E005C0823010F418
:1004F00095E001C091E0042F182F492F8AE0810F69
:10050000D2DE41E0BE016F5F7F4F81E0E1DEC12EB0
:10051000D12C81E090E07C01012E02C0EE0CFF1C8A
:100520000A94E2F789818E29898341E0BE016F5FD9
:100530007F4F81E0B8DE011108C01FC041E0BE015D
:100540006F5F7F4F82E0AFDE30C080E2898341E0A1
:10055000BE016F5F7F4F81E1810FA5DE8981F601CA
:10056000EE5EFD4F808341E0BE016F5F7F4F82E012
:10057000AFDE8981E82AE982E1CF198241E0BE013C
:100580006F5F7F4F81E1810F8EDE8981F601EE5E24
:10059000FD4F808341E0BE016F5F7F4F82E098DEB8
:1005A000E0948981E822E982C9CF0F90DF91CF9151
:1005B0001F910F91FF90EF90DF90CF900895FC0175
:1005C0008081ADE0B2E08C93818111968C9311977C
:1005D000828112968C931297838113968C93139732
:1005E000848114968C9345E0BF0180E15CCE089530
:1005F0000F931F93CF93DF931F92CDB7DEB7643075
:10060000E0F48230D0F4162F082F41E0BE016F5F76
:100610007F4F86E05DDE89818660612F660F6823EB
:10062000002319F06860698302C0677F698341E035
:10063000BE016F5F7F4F86E036DE0F90DF91CF9176
:100640001F910F9108950F931F93CF938C01C62F85
:1006500081E080935C022C98A0DE45E06DE072E0C2
:100660008AE021DE2D9880EAE4D060E2C801CED095
:100670002D9A2C9AC11107C080915C028111FCCF88
:100680008091050201C081E0CF911F910F910895E3
:10069000CF93DF93EC0110925C022C98FFDD8E70FB
:1006A00090E0959587959C013327F901EE5EFD4F0B
:1006B0004081413280F4873081F0F901EE5EFD4FD8
:1006C0002081AE01BE0181E628DEE8DD8E708E302D
:1006D00031F484E005C080E003C082E001C083E023
:1006E0002C9A10925C02DF91CF9108951F920F9285
:1006F0000FB60F9211240BB60F922F933F934F9387
:100700005F936F937F938F939F93AF93BF93EF9379
:10071000FF93CF93DF931F92CDB7DEB72C98BEDD4A
:10072000898386FF03C08E708695A6DD898185FF4B
:100730001BC010925C0253DE0EDE80910602909187
:100740000702880F991F90930702809306028091F9
:10075000060290910702816090930702809306023F
:1007600081E08093050214C084FF12C081EE61D045
:1007700010925C0234DEEFDD809106029091070258
:10078000880F991F9093070280930602109205022A
:1007900080E7898341E0BE016F5F7F4F87E083DDA3
:1007A0002C9A0F90DF91CF91FF91EF91BF91AF9174
:1007B0009F918F917F916F915F914F913F912F9179
:1007C0000F900BBE0F900FBE0F901F90189584B125
:1007D000876F84B9289A8CB580658CBD08954423B1
:1007E000A1F0FC01A62FB72F4150242F30E02F5F3E
:1007F0003F4F280F391F91919EBD0DB407FEFDCFCD
:100800009EB59D93E217F307B1F70895662381F033
:10081000FC016150262F30E02F5F3F4F280F391F1A
:1008200091919EBD0DB407FEFDCFE217F307C1F70E
:1008300008958EBD0DB407FEFDCF8EB50895EAE094
:10084000F1E0808180688083EBE0F1E080818F7748
:1008500080832FE986E891E0215080409040E1F7C5
:1008600000C00000808180688083AFE7BAE126E0A5
:10087000A150B0402040E1F700C0000093E080812B
:100880008F778083A3EDB0E31197F1F700C00000EC
:10089000808180688083A3EDB0E31197F1F700C0F9
:1008A0000000915061F782E0D1D080E8BBD087E8AA
:1008B00093E10197F1F700C0000081E8B3D089E02F
:1008C000B1D0A7EAB1E61197F1F700C0000080E0CF
:1008D000BDD082E8A7D087E893E10197F1F700C087
:1008E000000008951F93CF93DF93182FEB018EE83C
:1008F00099D0812F97D0123091F1133009F44BC069
:10090000113009F073C0DFD08A30E9F780E090E061
:1009100093D0888381E090E08FD0898382E090E05B
:100920008BD08A8383E090E087D08B8384E090E053
:1009300083D08C8385E090E07FD08D8386E090E04B
:100940007BD08E8387E090E077D08F8388E090E043
:1009500073D0888789E090E06FD0898747C0B3D093
:100960008630E9F780E090E067D08A8781E090E008
:1009700063D08B8782E090E05FD08D8783E090E04A
:100980005BD08C8784E090E057D08F8785E090E043
:1009900053D08E872BC097D08A30E9F780E090E063
:1009A0004BD0888B81E090E047D08A8B82E090E04A
:1009B00043D0898B83E090E03FD08C8B84E090E043
:1009C0003BD08B8B85E090E037D08D8B86E090E03C
:1009D00033D08F8B87E090E02FD08E8B88E090E033
:1009E0002BD0898F89E090E027D0888F71D0DF915C
:1009F000CF911F9108950F931F93CF93DF93182FDB
:100A0000092FC62FD72F89E80DD0802F0BD0812F2B
:100A100009D08D2F07D08C2F05D0DF91CF911F915A
:100A20000F910895F894E8ECF0E0908195FFFDCFE8
:100A30008093CE0078940895803291052CF4FC01C7
:100A4000E75CFD4F8081089580E00895E5E6F0E0E1
:100A500090819E7F90838130A1F060F0823019F008
:100A60008330B1F01CC083E390E09093CD0080937D
:100A7000CC001BC089E190E09093CD008093CC0026
:100A800014C080E190E09093CD008093CC000DC025
:100A900088E090E09093CD008093CC0006C080E188
:100AA00090E09093CD008093CC00E8ECF0E080E4FF
:100AB000808388E98093C90086E08093CA008081A2
:100AC0008D7F808308958091590290915A020895F4
:100AD00010925A021092590208951F920F920FB667
:100AE0000F9211240BB60F928F939F93EF93FF9366
:100AF000E0915902F0915A028091CE00E75CFD4FDF
:100B000080838091590290915A0201968F7190785A
:100B1000992324F40197806E9F6F019690935A0257
:100B20008093590281E080935B02FF91EF919F9146
:100B30008F910F900BBE0F900FBE0F901F901895C6
:040B4000F894FFCF57
:100B4400987654321001FF00E7E7E7E7E7E7E7E7C5
:080B5400E7E72020000000008B
:00000001FF
